:020000040800F2
:100000009804002001010008411600082515000889
:100010003D160008810100083517000800000000A7
:100020000000000000000000000000004916000869
:10003000B905000800000000451600084D1600082C
:100040001B0100081B0100081B0100081B01000820
:100050001B0100081B0100081B0100081B01000810
:100060001B0100081B0100081B0100081B01000800
:100070001B0100081B0100081B0100081B010008F0
:100080001B0100081B0100081B0100081B010008E0
:100090001B0100081B0100081B0100081B010008D0
:1000A0001B0100081B0100081B0100081B010008C0
:1000B0001B0100081B0100081B0100081B010008B0
:1000C0001B0100081B0100081B0100081B010008A0
:1000D0001B0100081B0100081B0100081B01000890
:1000E0001B0100081B0100081B010008DFF80CD0F1
:1000F00000F02EF800480047591700089804002027
:100100000648804706480047FEE7FEE7FEE7FEE7B1
:10011000FEE7FEE7FEE7FEE7FEE7FEE75116000812
:10012000ED00000830B50B460146002020220124D6
:1001300009E021FA02F59D4205D303FA02F5491BB5
:1001400004FA02F52844151EA2F10102F1DC30BDCB
:100150001CB509480090094801900546009C06E03E
:10016000E06840F0010394E8070098471034AC427F
:10017000F6D3FFF7BFFF0000B01A0008D01A00083E
:10018000FEE700002DE9F04385B040F600090820A5
:10019000C4F2010901900020029001A9484600F034
:1001A00023FA4846082100F021FB98B340F21405D9
:1001B00000204FF6FA76C2F200054FF6F97700BF3D
:1001C0002968044628464F6200F01AFF286800BFDD
:1001D000416A89B2B1420BD2416A89B2B14207D2B7
:1001E000416A89B2B14203D2416A89B2B142EFD3C6
:1001F000284600F019FF4846082100F0F7FA18B128
:10020000632C04F10100DBD3622C03D9012005B07B
:10021000BDE8F0834846082100F0E8FA20B100204C
:1002200005B0BDE8F08300BF40F2140500204FF692
:10023000FA76C2F200054FF6F97800BF2968074642
:100240002846C1F8248000F0DBFE2868416A89B2A4
:10025000B1420BD2416A89B2B14207D2416A89B236
:10026000B14203D2416A89B2B142EFD3284600F0CD
:10027000DBFE4846082100F0B9FA18B9632F07F1F0
:100280000100DBD30020622F88BF012005B0BDE84C
:10029000F083000080B500F04BF9BDE88040FFF727
:1002A00071BF00002DE9F04140F60008C4F20108DA
:1002B000404608214FF6FA7600F098FA40F214050D
:1002C000C2F2000520B300274FF6F9742868446293
:1002D000284600F095FE2868416A89B2B1420BD2E7
:1002E000416A89B2B14207D2416A89B2B14203D2AE
:1002F000416A89B2B142EFD3284600F095FE4046EC
:10030000082100F073FA18B1632F07F10107DDD35C
:100310004046082100F06AFA20BB00274FF6F97426
:1003200028684462284600F06BFE2868416A89B25A
:10033000B1420BD2416A89B2B14207D2416A89B255
:10034000B14203D2416A89B2B142EFD3284600F0EC
:100350006BFE4046082100F049FA18B9632F07F1F7
:100360000107DDD328684FF6D2714162284600F0BC
:1003700047FE2868416A89B2B1420BD2416A89B20C
:10038000B14207D2416A89B2B14203D2416A89B20D
:10039000B142EFD340F21400C2F2000000F044FE7C
:1003A0004046082100F022FA002818BF0120BDE8CD
:1003B000F08100002DE9F0478A46814600F0B8F848
:1003C000FFF7E0FE00281CBF0120BDE8F087FFF723
:1003D00069FF0646FFF766FF400040EA8604FFF724
:1003E00061FF0443FFF75EFFA10041EA4004FFF70D
:1003F00059FF0443FFF756FFA10041EA4004FFF70D
:1004000051FF0443FFF74EFF40EA4408FFF74AFF5D
:100410000646FFF747FF400040EA8604FFF742FF29
:100420000443FFF73FFFA10041EA4004FFF73AFF12
:100430000443FFF737FFA10041EA4004FFF732FF12
:100440000443FFF72FFF40EA4407FFF72BFF064660
:10045000FFF728FF400040EA8604FFF723FF04432C
:10046000FFF720FFA10041EA4004FFF71BFF044310
:10047000FFF718FFA10041EA4004FFF713FF044310
:10048000FFF710FF40EA4404FFF70CFF0646FFF7B2
:1004900009FF400040EA8605FFF704FF0543FFF728
:1004A00001FFA90041EA4005FFF7FCFE0543FFF705
:1004B000F9FEA90041EA4005FFF7F4FE0543FFF706
:1004C000F1FE40EA4505FFF7EDFE0646FFF7EAFEBE
:1004D000400040EA8606FFF7E5FE0643FFF7E2FE2E
:1004E000B10041EA4006FFF7DDFE0643FFF7DAFE02
:1004F000B10041EA4006FFF7D5FE0643FFF7D2FE02
:1005000040EA46035FFA88F0F9B20A18E7B21744E6
:10051000EAB21744DBB29F4207D141EA0020AAF8B1
:10052000000042EA0420A9F800000020BDE8F0879E
:10053000B0B584B008200090012040F6000401907E
:100540000320C4F201040390694620464FF6FA7571
:1005500000F04AF820460821002200F04DF914204E
:1005600000F02EF820460821012200F045F940F263
:100570001404C2F2000420684FF6DC714162204688
:1005800000F03EFD206800BF416A89B2A9420BD24B
:10059000416A89B2A94207D2416A89B2A94203D20B
:1005A000416A89B2A942EFD340F21400C2F20000BE
:1005B00000F03AFD04B0B0BD704700007047000085
:1005C000B0B5044600F01EF9054640F20800C2F23C
:1005D00000000078611C18BF044400BF00F012F94D
:1005E000401BA042FAD3B0BD2DE9F04F82B00E6897
:1005F000002E00F0F88040F20C4C40F2004E41F228
:100600000042C4F2010CC4F2010EC4F2010204273C
:10061000002401234FF0000A4FF00009904208BF68
:100620000327009741E0012704F00C030F229A40B2
:100630002BEA020207FA03F34FEA9A051A4346F837
:1006400025204E68F203DEF8002054BF22EA08029B
:1006500042EA0802CEF80020DEF80420B30354BFBB
:1006600022EA080242EA0802CEF80420F302DEF889
:10067000082054BF22EA080242EA0802B302CEF878
:100680000820DCF800204FF0010354BF22EA0802E2
:1006900042EA0802CCF800200E680AF1010A36FA94
:1006A0000AF204F1040400F09E8003FA0AFB16EA41
:1006B0000B08F1D04E684FF6FF72C1F2100296425D
:1006C00010DC122E50D8DFE806F0330A41454F4FB8
:1006D0004F4F4F4F4F4F4F4F4F4F4F484C00D1F858
:1006E0000C9041E04FF6FF72C1F2210296420FDCFE
:1006F0000022C1F2110296421AD00022C1F2120267
:10070000964215D00022C1F22102964210D02BE071
:100710000022C1F2220296420AD00022C1F2310226
:10072000964205D00022C1F2320296421CD100BF8F
:100730008A6842B1012A14BFC0F814B0C0F810B0E2
:100740004FF0080910E04FF004090DE0CA6802F10B
:10075000080909E04FF0000906E0CA6802F104093F
:1007600002E0CA6802F10C0922460646B8F5807F0D
:1007700024BF203A043637680F25954027EA05053F
:1007800009FA02F22A433260CA79D2067FF584AFB1
:1007900041F21803C4F202031A68AEF57E7642F005
:1007A00001021A601A6802F001020192019A2AF00D
:1007B000030256F802B040F60002C4F20102904271
:1007C0000FD040F60042C4F2010290423FF42BAF3A
:1007D00041F20002C4F20102009F904208BF0227CA
:1007E00022E7002720E702B0BDE8F08F80680840CC
:1007F00018BF012070470000002A08BF09040161EA
:100800007047000040F29400C2F200000068704798
:1008100040F2080040F29401C2F20000C2F200016E
:1008200000780A68104408607047000080B542F202
:100830000000C4F20200016841F0100101600320D1
:1008400000F07EF8002000F005F800F02BF8002002
:1008500080BD0000B0B540F20802C2F2000240F2D2
:1008600004011278C2F200014FF47A730968B3FBF5
:10087000F2F20446B1FBF2F1084600F017FB0F2C30
:100880004FF001050CD858B94FF0FF302146002237
:10089000002500F029F840F20C00C2F200000460CC
:1008A0002846B0BD82B041F21800C4F202000168CF
:1008B000022241F001010160016801F00101019192
:1008C0000199416841F080514160406800F08050DA
:1008D000009000980420C4F20100016862F31A61DC
:1008E000016002B07047000010B54EF60C5CCEF20D
:1008F000000CDCF80030C3F3022E8EF00704042C49
:1009000028BF0424BEF103034FF0FF3E0EFA04F4A7
:1009100038BF0023A14399400EFA03F39A431143D1
:1009200000F1604200F00F03090102F56442043B4C
:100930006344002848BF03F10C02117010BD000091
:100940004EF60C51CEF200010A684FF6FF031A4032
:1009500060F30A2242F0806040F0FD70086070474A
:10096000002804BF012070472DE9F04381B042F216
:100970000008C4F202080446D8F800000D4600F052
:10098000070088420CD2D8F8000020F00700284366
:10099000C8F80000D8F8000000F00700A8426BD1AA
:1009A000206841F204098107C4F2020917D5410702
:1009B00005D5D9F8001041F4E061C9F8001001072D
:1009C00005D5D9F8001041F46051C9F80010D9F8E4
:1009D0000010A26821F0F0011143C9F80010C0070F
:1009E00041D1D8F8000000F00700A8420CD9D8F88F
:1009F000000020F007002843C8F80000D8F80000E5
:100A000000F00700A84237D12068410707D5D9F880
:100A10000010E26821F4E0611143C9F800100007FA
:100A200008D5D9F80000216920F4605040EAC100DF
:100A3000C9F80000D9F8002002F00C00082841F2A3
:100A40000020C0F27A004DD141F69E23C2F38341CB
:100A5000C0F60003595CD20338D440F60010C0F24F
:100A60003D0048433EE06068022809D0012828D1B3
:100A700059F8041C890307D4012001B0BDE8F083B4
:100A800059F8041C8901F7D5D9F8001021F00301A9
:100A90000843C9F80000FFF7B5FE064641F2883763
:100AA000D9F80000616800F00C00B0EB810F98D01D
:100AB000FFF7A8FE801BB842F2D9032001B0BDE8C1
:100AC000F08359F8041C8907D6D5DDE7D9F8002052
:100AD00041F68423C2F34042C0F600039A5C4843C7
:100AE000B0FBF2F0D9F8001041F68622C1F30311F1
:100AF000C0F60002515C40F2040220FA01F140F21B
:100B00000C00C2F200000068C2F200021160FFF7A0
:100B1000A1FE002001B0BDE8F083000040F2040017
:100B200041F20401C2F20000C4F202010068096847
:100B300041F69622C1F30221C0F60002515CC84082
:100B40007047000040F2040041F20401C2F20000CC
:100B5000C4F202010068096841F69622C1F3C2217D
:100B6000C0F60002515CC84070470000002804BF76
:100B7000012070472DE9F04182B00446007841F22F
:100B80000006C007C4F2020649D0706800F00C00ED
:100B9000042809D13068800341D5606800283ED11F
:100BA000012002B0BDE8F081706800F00C00082858
:100BB00002D17068C003EDD465682DB1B5F5A02FE2
:100BC0000AD0B5F5803F0BD0306820F4803030601B
:100BD000306820F4802006E0306840F480203060E7
:100BE000306840F480303060FFF70CFE002D054681
:100BF00012D000BF3068800311D4FFF703FE401B02
:100C00006428F7D918E100BFFFF7FCFD401B6428FA
:100C10004FF0030000F2D88030688003F4D42078CD
:100C2000800719D5706810F00C0F07D0706800F0BD
:100C30000C00082827D17068C00324D430688007CE
:100C400003D52069012840F0A6803068616920F052
:100C5000F80040EAC1003060207800074ED5A06956
:100C600038B30020C4F242200121C0F88014FFF7FD
:100C7000C9FD0546706A80072DD4FFF7C3FD401BF0
:100C80000228F7D9D8E02069002840F20000C4F219
:100C9000422000F0A88001210160FFF7B3FD054666
:100CA00030688007D1D4FFF7ADFD401B0228F7D98B
:100CB000C2E00020C4F242200021C0F88014FFF7F7
:100CC000A1FD0546706A800718D5FFF79BFD401B04
:100CD0000228F7D9B0E040F20400C2F20000006838
:100CE00044F6D351C1F26201A0FB0101480A019010
:100CF00000BF0198411E00280191F9D120784007DA
:100D000017D4E5698DB1706800F00C00082846D151
:100D1000012D40D07068216A00F480328A423AD1B5
:100D2000616A00F47010884235D1002002B0BDE83D
:100D3000F081F0695FEAC00808D4F06940F08050A3
:100D4000F061F06900F080500090009847F20007D1
:100D5000C4F200073868C0050FD4386840F48070CA
:100D60003860FFF74FFD05463868C00505D4FFF72A
:100D700049FD401B6428F7D95EE0E5681DB1052DEB
:100D800042D0012D44D0306A20F001003062306A38
:100D900020F004003FE0012002B0BDE8F081002710
:100DA000C4F2422700203866FFF72CFD022D0546CD
:100DB0000ED100BF3068800155D5FFF723FD401BE1
:100DC00002284FF00300F5D902B0BDE8F08100BF62
:100DD00030688001A9D5FFF715FD401B02284FF0B0
:100DE0000300F5D9F0E700210160FFF70BFD054690
:100DF000306880077FF530AFFFF704FD401B022805
:100E00004FF00300F4D9DFE7306A40F004003062AD
:100E1000306A40F001003062FFF7F4FC002D054617
:100E200041F2883713D000BF306A800712D4FFF731
:100E3000E9FC401BB842F7D9032002B0BDE8F081BD
:100E4000FFF7E0FC401BB8424FF00300BCD8306A0B
:100E50008007F5D4B8F1000F3FF553AFF06920F0EB
:100E60008050F0614DE7206AB0F5803F05D1716890
:100E7000A26821F40031114371607168626A21F443
:100E8000741111430843706001203866FFF7BAFC03
:100E9000044600BF306880013FF547AFFFF7B2FC62
:100EA000001B02284FF00300F4D98DE7411E0020FB
:100EB000B0EB116F1CBF012070474EF21002CEF252
:100EC000000251604EF62351CEF20001F0230B7068
:100ED000072190601160704790F83C20012A4FF084
:100EE000020218D010B580F83D200268D2F804E064
:100EF000D2F808C012C92EF0700319432CF08003F9
:100F00002343516093600121002280F83D1080F856
:100F10003C20BDE81040104670470000002804BF88
:100F20000120704710B5044690F83D0028B9002014
:100F300084F83C00204600F04BF8022084F83D0085
:100F4000206840F2FF730268C4F2000342F6004CCE
:100F50009842C4F2010C05DCB0F1804F0AD040F297
:100F6000004103E0604505D040F60001C4F20001F5
:100F7000884203D1A16822F070020A43984205DC3E
:100F8000B0F1804F0AD040F2004103E0604505D047
:100F900040F60001C4F20001884203D1216922F425
:100FA00040720A43A36922F08001D4F804E0E268A9
:100FB000194360450160C262C0F828E002D161694E
:100FC000CCF8301001214161002084F83D1010BDA3
:100FD000006842F60041C4F20101884218BF704720
:100FE00081B041F21800C4F20200016841F40061CE
:100FF0000160006800F400600090009801B0704744
:101000000146022081F83D000868826802F007026C
:10101000062A03D0026842F0010202600122002089
:1010200081F83D20704700000146022081F83D0014
:10103000086841F21113026A1A4208D1026A40F2AA
:1010400044431A4203D1026822F0010202600122E5
:10105000002081F83D20704790F83C20012A4FF095
:10106000020200F0C38080B5012380F83C3080F894
:101070003D20D0F800C04FF67772DCF8083023EA44
:101080000202CCF808200B683F2B1CDD5F2B20DD13
:10109000602B4FD0B3F5005F6CD0702B40F09E807A
:1010A000D1E901E3C968DCF8082043EA0E0322F421
:1010B0007F4243EA01211143CCF80810DCF8081004
:1010C00041F0770188E01F2B28DC5BB3102B29D07F
:1010D00084E0402B61D0502B40F08080D1F804E0B8
:1010E000C968DCF82030DCF8202022F00102CCF8BE
:1010F0002020DCF8182022F0F00242EA011123F04F
:101100000A0242EA0E02CCF81810CCF82020DCF8D3
:10111000081041F0570121F020015DE0202B01D0A3
:10112000302B5BD1DCF8081021F07001194341F03D
:10113000070151E0D1F804E0C968DCF8203023F061
:101140001003CCF82030DCF81830DCF8202023F431
:10115000704322F0A00243EA013142EA0E12CCF8B9
:101160001810CCF82020DCF8081041F0670121F0BD
:10117000100131E0D1E901E3C968DCF8082043EA55
:101180000E0322F47F4243EA01211143CCF80810F8
:10119000DCF8081041F480411EE0D1F804E0C96891
:1011A000DCF82030DCF8202022F00102CCF82020EE
:1011B000DCF8182022F0F00242EA011123F00A02C2
:1011C00042EA0E02CCF81810CCF82020DCF8081007
:1011D00041F0470121F03001CCF808100121002234
:1011E00080F83D1080F83C20BDE8804010467047F4
:1011F000002804BF0120704710B5044690F839005C
:1012000028B9002084F83800204600F021F8242076
:1012100084F839002068C16821F40051C16020467B
:1012200000F03EFA2068016921F4904101614169B2
:1012300021F02A014161C16841F40051C1600020E0
:101240002021E06384F8391084F83A1010BD0000C2
:1012500070B586B040F60004C4F20104006804F5DD
:10126000405100268842049602D006B070BD00BFEF
:1012700041F21800C4F20200016802AD41F480415D
:101280000160016801F4804101910199016841F018
:10129000040101600068294600F0040001900198F3
:1012A0004FF4007002900220039003200590204626
:1012B000FFF79AF94FF48060CDE9020620462946EF
:1012C0000496FFF791F906B070BD00002DE9F043D8
:1012D00081B0044690F83A0020280BD10E46002930
:1012E0004FF001007DD01746002A7AD094F83800DC
:1012F000012803D1022001B0BDE8F083012084F869
:1013000038004FF0000822201D46C4F83C8084F8C5
:101310003A00FFF777FAA785E785E18D00294CD0E1
:1013200081466F1C0BE000BF2068216940680029DE
:1013300018BF00F07F0006F8010BE08DE8B3E08DE8
:101340000138E0852068A1680068B1F5805F05D1AB
:10135000800617D49FB165B931E000BF8006E3D4A1
:101360004FB315BB2BE000BF016889060AD4002FDC
:10137000FAD0FFF747FAA0EB0900A8421FD820686F
:10138000F2E700BF20682169406819B1C0B226F8B1
:10139000010BD2E76FF35F2026F8020BCDE700BF09
:1013A00001688906C0D4002FFAD0FFF72BFAA0EB12
:1013B0000900A84203D82068F2E700200CE020686A
:1013C000C16821F4D071C160416921F0010141611E
:1013D000202084F839000320202184F83A1084F872
:1013E000388001B0BDE8F0832DE9F041044690F863
:1013F000390020280ED10F4600294FF0010000F0DF
:101400008E801646002A08BFBDE8F08194F83800A7
:10141000012802D10220BDE8F081012084F83800C3
:101420000020E06321201D4684F83900FFF7EAF927
:10143000A684E684E18C8046002944D06E1C05E039
:1014400017F8010B21684860E08CE0B3E08C0138AC
:10145000E0842068A1680068B1F5805F4FEA006011
:1014600004D1002816D496B15DB934E00028E7D441
:101470003EB305BB2FE000BF016809060AD4002E69
:10148000FAD0FFF7BFF9A0EB0800A84223D82068E4
:10149000F2E700BF3888216922686FF35F200029D6
:1014A000506014BF01370237CEE700BF016809065C
:1014B000C6D4002EFAD0FFF7A5F9A0EB0800A84289
:1014C00009D82068F2E720680068400620D415B1EA
:1014D0006E1C10D015E02068C16821F4D071C16085
:1014E000416921F001014161202084F8390084F82C
:1014F0003A00032010E020680168490608D4002E55
:10150000FAD0FFF77FF9A0EB0800A842F3D9E2E791
:10151000202084F839000020002184F83810BDE82C
:10152000F0810000FEE7000070B584B041F21800C1
:10153000C4F20200016840F6000441F0200101609D
:101540000168C4F2010401F02001009100990168D2
:10155000012241F00401016000680C2100F0040048
:101560000090009820460C250126FFF745F9002041
:1015700002900320039069462046CDE90056FFF70C
:1015800033F804B070BD000080B586B040F214009E
:1015900042F600420021C2F20000C4F201024723D9
:1015A0004FF6FF7C0591CDE90311CDE90011C0E9AB
:1015B0000023C0E9021CC0E904118161FFF7AEFC01
:1015C000002818BFFEF7FAFF4FF48050029040F257
:1015D0001400C2F2000002A9FFF73EFD002818BF68
:1015E000FEF7ECFF40F21400C2F200006946FFF77C
:1015F00073FC002818BFFEF7E1FF06B080BD0000B5
:1016000080B540F2540043F60001C2F20000C4F27B
:10161000010100234FF00C0C4FF4E13280E80E0082
:10162000C0E90333C0E905C3C361FFF7E1FD00284A
:1016300008BF80BDBDE88040FEF7C0BFFEE70000E8
:10164000704700007047000070470000FFF7E0B8E7
:1016500041F20000C4F202000168002241F00101E1
:1016600001604168CFF6FF021140416001684FF60A
:10167000FF72CFF6F66211400160016821F480210B
:101680000160416821F4FE0141604FF41F01816057
:101690004EF60850CEF200004FF000610160704736
:1016A00010B504460068D4E902C22369016921F437
:1016B000405111430161616943EA0C021143C26860
:1016C00041F20C639A431143C1604169A26921F45C
:1016D0004071114343F60002C4F20102904241619D
:1016E00002D0FFF71BFA01E0FFF72CFAD4E9002340
:1016F000192148439900B0FBF1F048F21F51C5F29F
:10170000EB11A0FB013463094FF69C74C0F6FF7423
:1017100003FB0400322404EB0010A0FB0101F020C5
:1017200000EA511000EB0310C1F34311084490602C
:1017300010BD0000FEE7000080B582B0019040F2CD
:101740005400C2F2000001A901224FF6FF73FFF717
:101750004BFE019802B080BD90B0FFF767F80024FF
:101760000120CDE90B44CDE9094406900A904FF4DD
:10177000E0104FF4803102250F9006A8CDE9071440
:10178000CDE90D51FFF7F2F90F20CDE901054FF436
:101790008060CDE9040401A802210394FFF7E0F87A
:1017A000FFF7C2FEFFF7F0FEFFF72AFF2AA000F0C6
:1017B00057F9FEF76FFD60B12AA400BF204600F084
:1017C0004FF94FF4FA70FEF7FBFEFEF763FD0028B9
:1017D000F4D12BA000F044F940F2540440F210057B
:1017E00040F6000A0DF118080DF104092BA631A7E7
:1017F000C2F20004C2F20005C4F2010A09E000BF0F
:10180000002250460421FEF7F7FF4FF4FA70FEF76E
:10181000D7FE40464946FEF7CDFDBDF81800010A47
:10182000C2B2304600F052F8BDF80400010AC2B25C
:10183000384600F04BF84FF47A70FEF7C1FE2046B0
:10184000294601226423FFF741FD28784128D7D09B
:101850004228DED10122D4E7544553542121210DE1
:1018600000000000444854313120436865636B65D3
:1018700064206661696C65642121210D000000000F
:10188000444854313120436865636B656420537567
:10189000636573732121210D0000000054656D7094
:1018A00065726174757265203D2025642E25640D76
:1018B0000A00000048756D6964697479203D20252F
:1018C000642E256425250D0A000000000FB4054B89
:1018D00010B503A9044A029800F018F810BC5DF88E
:1018E00014FB0000391700080000002002E008C8BF
:1018F000121F08C1002AFAD170477047002001E08A
:1019000001C1121F002AFBD1704700002DE9FF4FD3
:1019100089B09B460446002506E025280BD05A4690
:101920000B999047641C6D1C20780028F5D10DB0F0
:101930002846BDE8F08F0027B8460122474900E05D
:10194000074314F8013F203B02FA03F00842F7D1A5
:1019500020782E2819D114F8010F47F004072A28FF
:101960000ED06FF02F022078A0F1300109290CD899
:1019700008EB880102EB410100EB0108641CF2E76F
:101980000A98641C50F8048B0A9020780028CED066
:10199000642808D0692806D075281ED05A460B99AD
:1019A00090476D1C58E00A994FF00A0901C90A9145
:1019B000002802DA40422D2102E0390504D52B210E
:1019C0008DF82010012103E0F90704D02021F7E76A
:1019D0008A4608AE0DE00021FAE70A994FF00A099D
:1019E00001C90A91F7E74946FEF79CFB303106F83A
:1019F000011D0028F7D1ADEB060000F120097807A2
:101A000001D44FF00108C84502DDA8EB090000E051
:101A100000208046002706E008A85A46C05D0B99C2
:101A200090476D1C7F1C5745F6DB04E030205A467A
:101A30000B9990476D1CB8F10001A8F10108F5DC85
:101A400005E016F8010B5A460B9990476D1CB9F149
:101A50000001A9F10109F4DC641C65E70928010013
:101A600010B5044601E0FFF767FE14F8010B0449C6
:101A70000028F8D1BDE810400A20FFF75DBE000045
:101A80000000002001020000000000000000010230
:101A90000304060708090000000001020304020312
:101AA0000405060708090A0B0C0D0E0F10100000A4
:101AB000D01A00080000002010000000EC180008F8
:101AC000E01A00081000002088040000FC1800083C
:101AD000000000000024F4000100000010000000DD
:04000005080000ED02
:00000001FF
